:020000040000FA
:0400000007EF00F016
:0A0008005A825A921100F9EF0EF02F
:1003000000D1038903A503670305010905A10115B0
:10031000002501350045017501950E0509190129D2
:100320000E81029502810105012507463B017504F6
:10033000950165140939814265009501810126FF07
:100340000046FF0009300931093209357508950466
:1003500081027508950181010A4F4875089508B119
:10036000020A4F489102C009022200010100A03296
:10037000090400000103000000092111010001220D
:100380005E00070581034000081C0348004F00522F
:10039000004900200043004F002E002C004C005468
:1003A0000044002E001A035000430045006E006711
:1003B0000069006E006500200050004100440012FA
:1003C000010002000000080D0F38010801010200C1
:1003D00001040309040002011605D8A4F2EF01F09C
:1003E000F4EF01F00EEF02F014511F0B0009D8A436
:1003F000FCEF01F0FEEF01F00EEF02F00C8E030EA9
:100400001519D8A406EF02F008EF02F00CEF02F085
:10041000010E316E0EEF02F0000E316E1651D8A4AF
:1004200014EF02F016EF02F050EF03F014511F0B1F
:10043000020AD8A41EEF02F020EF02F050EF03F002
:1004400018510F0B0009D8B428EF02F02AEF02F080
:1004500050EF03F018510F0B516E020E516033EF45
:1004600002F035EF02F050EF03F0200E3718D8A459
:100470003CEF02F03EEF02F050EF03F00C8E18BF9D
:1004800044EF02F046EF02F063EF02F018510F0B59
:10049000516E5150020D170EF324D96E000EF42048
:1004A000DA6EDECF56F0DDCF57F018510F0B516EDC
:1004B000526A1B0E5124D96E000E5220DA6EDF50A4
:1004C000556E7EEF02F018510F0B516E5150020D18
:1004D000130EF324D96E000EF420DA6EDECF56F040
:1004E000DDCF57F018510F0B516E526A1D0E51247B
:1004F000D96E000E5220DA6EDF50556E18BF83EFB2
:1005000002F085EF02F096EF02F018510F0B516EDA
:100510005150020D170EF324D96E000EF420DA6E3E
:1005200056C0DEFF57C0DDFFA5EF02F018510F0BDC
:10053000516E5150020D130EF324D96E000EF420AB
:10054000DA6E56C0DEFF57C0DDFF030E1519D8A4C2
:10055000ACEF02F0AEEF02F0E6EF02F056C0D9FFCA
:1005600057C0DAFFDFAEB7EF02F0B9EF02F0D8EF15
:1005700002F018BFBEEF02F0C0EF02F0CDEF02F0C4
:1005800018510F0B516E526A1B0E5124D96E000E7A
:100590005220DA6EDF82D8EF02F018510F0B516E45
:1005A000526A1D0E5124D96E000E5220DA6EDF827F
:1005B00056C0D9FF57C0DAFF000EDB8456C0D9FF02
:1005C00057C0DAFF000EDB8E50EF03F055B2EBEFB1
:1005D00002F0EDEF02F0F8EF02F056C0D9FF57C07D
:1005E000DAFFDFAEF6EF02F0F8EF02F033EF03F0E0
:1005F00018BFFDEF02F0FFEF02F00CEF03F018510F
:100600000F0B516E526A1B0E5124D96E000E5220F0
:10061000DA6EDF9217EF03F018510F0B516E526A2A
:100620001D0E5124D96E000E5220DA6EDF9256C094
:10063000D9FF57C0DAFF7B0EDF1656C0D9FF57C06F
:10064000DAFF000EDB8C000E4A6E050E496E56C0B6
:100650004BF057C04CF0000E4E6E020E4D6EF9EC92
:100660000CF03FEF03F056C0D9FF57C0DAFF7B0E06
:10067000DF1656C0D9FF57C0DAFF000EDB8C02012F
:1006800018510F0B516E526A530E5124536E0F0EB8
:100690005220546E53C0D9FF54C0DAFFFE0EDF164D
:1006A00012003750D8A457EF03F059EF03F070EF62
:1006B00003F0000E646E000E606E150E616E9F0EEC
:1006C0000F015B6F7B0E606E67EF03F0648664A6BC
:1006D0006CEF03F06EEF03F066EF03F0010E376E80
:1006E0003704D8A476EF03F078EF03F087EF03F038
:1006F00064BA7DEF03F07FEF03F087EF03F0000EA5
:10070000626E000E606E60806088020E376E62A4BA
:100710008CEF03F08EEF03F098EF03F060A493EFFB
:1007200003F095EF03F098EF03F062948FEC0EF076
:1007300064A29DEF03F09FEF03F0A2EF03F0A194FA
:100740006CEF04F062A0A7EF03F0A9EF03F0B5EFA0
:1007500003F060A0AEEF03F0B0EF03F0B5EF03F0ED
:1007600037EC05F0040E376E629062A8BAEF03F022
:10077000BCEF03F0C5EF03F060A8C1EF03F0C3EFD7
:1007800003F0C5EF03F0E3EC0EF062ACCAEF03F048
:10079000CCEF03F0F7EF03F060ACD1EF03F0D3EF51
:1007A00003F0E1EF03F0000E4A6E730E496E000E87
:1007B0004B6E000E4C6E000E4E6E010E4D6EF9EC3F
:1007C0000CF0629CCAEC0EF02D50D8B4EAEF03F0A6
:1007D000ECEF03F0EDEF03F02D062D50D8A4F3EF6E
:1007E00003F0F5EF03F0F7EF03F07BEC0AF062AAF9
:1007F000FCEF03F0FEEF03F007EF04F060AA03EF55
:1008000004F005EF04F007EF04F0C6EC0DF062A26F
:100810000CEF04F00EEF04F025EF04F060A213EFEC
:1008200004F015EF04F025EF04F07F0E4A6E4968DE
:10083000000E4B6E000E4C6E000E4E6E010E4D6E95
:10084000F9EC0CF0000E0F015F6F040E37602BEF18
:1008500004F02DEF04F030EF04F0A1946CEF04F0FD
:1008600060A635EF04F037EF04F06BEF04F0000EF4
:10087000596E62A63EEF04F040EF04F06BEF04F017
:1008800063CF3AF03A30E832E8320F0B2F6E6296BF
:100890002F50D8A44EEF04F050EF04F054EF04F0C2
:1008A00047EC0CF062EF04F0000E4A6E720E496ED7
:1008B0003A0E4B6E000E4C6E000E4E6E000E4D6EDC
:1008C000F9EC0CF0592A030E596469EF04F06BEF50
:1008D00004F039EF04F0A19412001F0E376473EF97
:1008E00004F075EF04F036EF05F064A27AEF04F03F
:1008F0007CEF04F07EEF04F036EF05F02550261073
:10090000D8B485EF04F087EF04F092EF04F025C02F
:10091000D9FF26C0DAFFDFBE90EF04F092EF04F0BB
:1009200036EF05F0000E0201406F000E416F0F0E12
:10093000426F800E436F800E446F800E456F800EB5
:10094000466F000E476F81BEA8EF04F0AAEF04F0D7
:10095000ACEF04F0000E426F81BCB1EF04F0B3EFD6
:1009600004F0B5EF04F0040E426F81BABAEF04F060
:10097000BCEF04F0DCEF04F00F0E4219D8A4C3EF73
:1009800004F0C5EF04F0C7EF04F0060E426F4251C9
:10099000D8A4CDEF04F0CFEF04F0D1EF04F0070EB0
:1009A000426F040E4219D8A4D8EF04F0DAEF04F035
:1009B000DCEF04F0050E426F81B8E1EF04F0E3EFE5
:1009C00004F003EF05F00F0E4219D8A4EAEF04F08B
:1009D000ECEF04F0EEEF04F0020E426F4251D8A4A7
:1009E000F4EF04F0F6EF04F0F8EF04F0010E426FBC
:1009F000040E4219D8A4FFEF04F001EF05F003EF55
:100A000005F0030E426F82B008EF05F00AEF05F023
:100A10000BEF05F0408582B210EF05F012EF05F004
:100A200013EF05F0408382B418EF05F01AEF05F0DC
:100A30001BEF05F0418182B620EF05F022EF05F0B3
:100A400023EF05F04183F00E00D0E82EFDD7010E14
:100A50003D6E400E3E6E020E3F6E080E406E010E61
:100A600059EC08F03DC025F03EC026F01200A094DD
:100A7000000E0F015F6F000E626E000E536F540E7A
:100A80003D6E0F0E3E6E000E406E000E3F6E000E6D
:100A9000426E010E416EAEEC0EF0150E616E9F0EB1
:100AA0000F015B6F7B0E606E000E456E4550040DAE
:100AB000000EF324D96E020EF420DA6EDE6ADE6ACE
:100AC000DE6ADD6A452A040E456469EF05F06BEFC6
:100AD00005F056EF05F0648C000E0F015C6F649812
:100AE000649C6296000E0C6E000E046E000E066E84
:100AF000000E056E62B67FEF05F081EF05F071EF35
:100B000005F0010E2B6E010E2A6E000E296E000EEE
:100B1000286E000E306E000E456E4550020D130E0D
:100B2000F324D96E000EF420DA6E000EDE6E000E95
:100B3000DD6E4550020D170EF324D96E000EF42021
:100B4000DA6E000EDE6E000EDD6E1D0E4524D96ECF
:100B5000DA6A000EDA22000EDF6E1B0E4524D96E13
:100B6000DA6A000EDA22000EDF6E452A010E4564B5
:100B7000BCEF05F0BEEF05F08DEF05F0080E136E2B
:100B8000020E146E160E0F01536F020E0201036F58
:100B9000140E026F080E016F040E006F008F000E1E
:100BA0003C6E000E0F6E000E106E000E116E000EE9
:100BB000126E000E276E000E376E120020EE01F04E
:100BC0002350D9262450DA22DF503E6E3E50055C79
:100BD000000E0658D8B0EFEF05F0F1EF05F0F3EF97
:100BE00005F005C03EF03E50055E000E065A000EB0
:100BF0003D6E0AEF06F01C0E3D24D96EDA6A020E35
:100C0000DA2201C0E1FF02C0E2FFDFCFE7FF014AC5
:100C1000022A3D2A3E503D5CD8A011EF06F013EFAA
:100C200006F0FBEF05F005500610D8B41AEF06F0F9
:100C30001CEF06F055EF06F020EE01F02150D9260A
:100C40002250DA22080EDF6E20EE02F02150D92663
:100C50002250DA221C0EDE6E020EDD6E23C0D9FF9A
:100C600024C0DAFFDFBC37EF06F039EF06F047EFBC
:100C700006F021C0D9FF22C0DAFF480EDF6E21C086
:100C8000D9FF22C0DAFF000EDB8E7EEF06F021C016
:100C9000D9FF22C0DAFF080EDF6E21C0D9FF22C0C3
:100CA000DAFF000EDB8E7EEF06F020EE01F0215021
:100CB000D9262250DA22080EDF6E20EE02F02150F3
:100CC000D9262250DA22140EDE6E020EDD6E21C00D
:100CD000D9FF22C0DAFF040EDF6E21C0D9FF22C087
:100CE000DAFF000EDB8E049E2C50D8A47AEF06F0BB
:100CF0007CEF06F07EEF06F07BEC0AF012006498C1
:100D00000CBE85EF06F087EF06F0CCEF06F004AEE0
:100D10008CEF06F08EEF06F0A0EF06F0020E326EBA
:100D20002850D8A496EF06F098EF06F09AEF06F058
:100D3000A3EC0CF0000E2A6E000E2B6E1EEF07F0D7
:100D400020EE01F02150D9262250DA22080EDF6E63
:100D500020EE02F02150D9262250DA22140EDE6E47
:100D6000020EDD6E21C0D9FF22C0DAFF0C0EDF6E4D
:100D700021C0D9FF22C0DAFF000EDB8E13C0D9FFDD
:100D800014C0DAFF040EDF6E13C0D9FF14C0DAFFFF
:100D9000000EDB8E1EEF07F0020114AFD2EF06F05B
:100DA000D4EF06F0F0EF06F0010E326E2950D8A411
:100DB000DCEF06F0DEEF06F0E0EF06F0A3EC0CF05F
:100DC000000E2A6E000E2B6E2C50D8A4EAEF06F00F
:100DD000ECEF06F01EEF07F07BEC0AF01EEF07F0D9
:100DE000020E326E20EE01F02150D9262250DA2276
:100DF000080EDF6E20EE02F02150D9262250DA22B2
:100E0000140EDE6E020EDD6E21C0D9FF22C0DAFFA5
:100E1000040EDF6E21C0D9FF22C0DAFF000EDB8E88
:100E2000000E2A6E000E2B6E2C50D8A41AEF07F07D
:100E30001CEF07F01EEF07F0ECEF06F01200800E3B
:100E400002011419D8A427EF07F029EF07F0BCEF2F
:100E500007F0C00E0C6EADEF07F0BF0E096E030E6B
:100E60000A6E000E0E6E120E0D6EBCEF07F01651DC
:100E7000D8A43DEF07F03FEF07F07DEF07F01651E4
:100E8000020D070EF324F66E030EF420F76E090030
:100E9000F5CF09F00A00F5CF0AF0020E09243D6EE5
:100EA000000E0A203E6E3DC0F6FF3EC0F7FFF86A16
:100EB000020EF76403D00800F55005D0F6CFE1FF2D
:100EC000F7CFE2FFE7500D6E030E09243D6E000ED2
:100ED0000A203E6E3DC0F6FF3EC0F7FFF86A020EE4
:100EE000F76403D00800F55005D0F6CFE1FFF7CF47
:100EF000E2FFE7500E6EBCEF07F0000E0C6EBCEF89
:100F000007F0030E166187EF07F089EF07F07DEF1A
:100F100007F01651020D010EF324F66E030EF420B5
:100F2000F76E0900F5CF09F00A00F5CF0AF009C005
:100F3000F6FF0AC0F7FFF86A020EF76403D0080054
:100F4000F55005D0F6CFE1FFF7CFE2FFE7503D6E59
:100F50003D500D6E0E6ABCEF07F01751010AD8B470
:100F60002DEF07F0030AD8B437EF07F0010AD8B421
:100F700081EF07F07DEF07F01200020114511F0B03
:100F8000E806D8B4C6EF07F0C8EF07F0CAEF07F0DD
:100F900058EF08F01851D8B4D0EF07F0D2EF07F0AF
:100FA000D4EF07F058EF08F0060E1519D8A4DBEFC0
:100FB00007F0DDEF07F00CEF08F0FDEF07F03C0461
:100FC000D8A4E5EF07F0E7EF07F00CEF08F0790E93
:100FD000096E030E0A6E000E0E6E090E0D6EC00E27
:100FE0000C6E0CEF08F0090E096E030E0A6E000E6F
:100FF0000E6E5E0E0D6EEFEF07F01751210AD8B49A
:10100000DFEF07F0030AD8B4F3EF07F0010AD8B412
:101010000CEF08F00CEF08F01439E832030BE80687
:10102000D8B415EF08F017EF08F03DEF08F058EFCF
:1010300008F0390E096E000E0A6E000E0E6E010EDB
:101040000D6EC10E0C6E58EF08F0800E0C6E17C2BC
:1010500039F058EF08F0380E096E000E0A6E000ED7
:101060000E6E010E0D6E810E0C6E58EF08F0800EA4
:101070000C6E16C238F058EF08F01551010AD8B4BA
:1010800058EF08F0030AD8B419EF08F0010AD8B4F1
:101090002BEF08F00A0AD8B458EF08F0030AD8B4C6
:1010A00025EF08F0010AD8B437EF08F058EF08F040
:1010B0001200416E3D50D8B460EF08F062EF08F0C6
:1010C00070EF08F04150020D130EF324D96E000E9C
:1010D000F420DA6EDECF42F0DDCF43F07CEF08F093
:1010E0004150020D170EF324D96E000EF420DA6E73
:1010F000DECF42F0DDCF43F042504310D8A483EF5F
:1011000008F085EF08F08BEF08F0000E3D6E000E42
:101110003E6EF3EF08F04150D8B491EF08F093EF32
:1011200008F099EF08F042C0D9FF43C0DAFF400E43
:10113000DF1A20EE02F04250D9264350DA223EC098
:10114000DEFF3FC0DDFF20EE01F04250D9264350C4
:10115000DA2240C0DFFF42C0D9FF43C0DAFF400EB1
:10116000DF1642C0D9FF43C0DAFF000EDB8642C063
:10117000D9FF43C0DAFF000EDB8E3D50D8B4C3EF79
:1011800008F0C5EF08F0DBEF08F04150020D130E38
:10119000F324D96E000EF420DA6E4150020D130EC6
:1011A000F324E16E000EF420E26EDECFE6FFDDCF29
:1011B000E5FFEFEF08F04150020D170EF324D96E52
:1011C000000EF420DA6E4150020D170EF324E16E8A
:1011D000000EF420E26EDECFE6FFDDCFE5FF42C079
:1011E0003DF043C03EF01200080E3D6E0E5007E188
:1011F000080E0D5CD8B0FFEF08F001EF09F019EF11
:1012000009F00DC03DF03350D8A409EF09F00BEF01
:1012100009F00FEF09F0010E336E19EF09F03304F6
:10122000D8A415EF09F017EF09F019EF09F0020E35
:10123000336E3D500D5E000E0E5A20EE01F013503D
:10124000D9261450DA223DC0DFFF1C0E1F6E020E9D
:10125000206E0CB02EEF09F030EF09F070EF09F0BE
:101260004CEF09F009C0F6FF0AC0F7FFF86A1FC08B
:10127000D9FF20C0DAFF020EF76403D00800F55052
:1012800005D0F6CFE1FFF7CFE2FFE750DF6E094A66
:101290000A2A1F4A202A3D063D50D8A452EF09F0E1
:1012A00054EF09F032EF09F078EF09F009C0F6FFCA
:1012B0000AC0F7FFF86A1FC0D9FF20C0DAFF020E8C
:1012C000F76403D00800F55005D0F6CFE1FFF7CF63
:1012D000E2FFE750DF6E094A0A2A1F4A202A3D062C
:1012E0003D50D8A476EF09F078EF09F056EF09F0F9
:1012F000120013C0D9FF14C0DAFF000EDFBC010ECC
:101300003E6E13C013F014C014F0080E3718D8A4A2
:101310008CEF09F08EEF09F0A1EF09F002011651F0
:101320007F0B0F015C6F5C51D8B499EF09F09BEF14
:1013300009F09FEF09F0100E376EA1EF09F0040ECF
:10134000376E3204D8A4A7EF09F0A9EF09F0F0EF47
:1013500009F020EE02F01350D9261450DA221C0EA8
:10136000DE6E020EDD6EF4EC08F0020E3318D8A427
:10137000BCEF09F0BEEF09F0CCEF09F013C0D9FFC4
:1013800014C0DAFF040EDF6E13C0D9FF14C0DAFFF9
:10139000000EDB8EFAEF09F03E50D8A4D2EF09F030
:1013A000D4EF09F0E2EF09F013C0D9FF14C0DAFF5F
:1013B000480EDF6E13C0D9FF14C0DAFF000EDB8EBB
:1013C000FAEF09F013C0D9FF14C0DAFF080EDF6E80
:1013D00013C0D9FF14C0DAFF000EDB8EFAEF09F05C
:1013E00004AEF5EF09F0F7EF09F0F8EF09F0049E0D
:1013F000000E326E120002011439E832030B0009AC
:10140000D8B405EF0AF007EF0AF04BEF0AF07AEFD5
:101410000AF00C8E080E376E7AEF0AF01FEC07F018
:101420007AEF0AF06AEC0BF07AEF0AF03C0E096EE4
:10143000000E0A6E0C80010E0D6E0C8E7AEF0AF013
:10144000F3EC0AF07AEF0AF0EBEC01F07AEF0AF035
:101450003B0E1825096E0A6A000E0A221AEF0AF0DE
:101460000C8E3B0E1825D96EDA6A000EDA2216C2EF
:10147000DFFF7AEF0AF0000E4A6E020E496E000E90
:101480004B6E000E4C6E000E4E6E000E4D6EF9EC63
:101490000CF07AEF0AF01551000AD8B420EF0AF0E8
:1014A000010AD8B424EF0AF0020AD8B424EF0AF0F3
:1014B000060AD8B409EF0AF0030AD8B40EEF0AF00E
:1014C000010AD8B43BEF0AF00F0AD8B416EF0AF0BD
:1014D000010AD8B412EF0AF0030AD8B428EF0AF0D0
:1014E000010AD8B430EF0AF0070AD8B47AEF0AF04C
:1014F0007AEF0AF012002B50D8A481EF0AF083EFA4
:101500000AF0F2EF0AF0010E2B6E2A50D8A48BEFEE
:101510000AF08DEF0AF0F2EF0AF0010E2A6E020EC9
:101520003218D8A496EF0AF098EF0AF0AEEF0AF05E
:1015300020EE01F01350D9261450DA22000EDF6E8F
:1015400013C0D9FF14C0DAFF480EDF6E13C0D9FFF5
:1015500014C0DAFF000EDB8EF2EF0AF03204D8A4DA
:10156000B4EF0AF0B6EF0AF0F2EF0AF0000E2E6EBA
:1015700020EE01F02350D9262450DA22080EDF6E27
:1015800020EE02F02350D9262450DA22140EDE6E0B
:10159000020EDD6E23C0D9FF24C0DAFF040EDF6E19
:1015A00023C0D9FF24C0DAFF000EDB8E010E2E6EA1
:1015B00020EE01F02150D9262250DA22080EDF6EEB
:1015C00020EE02F02150D9262250DA22140EDE6ECF
:1015D000020EDD6E21C0D9FF22C0DAFF800EDF6E61
:1015E000F2EF0AF01200000E02011C6F000E1D6FD8
:1015F0004BEF0BF00C8E3104D8A401EF0BF003EF8E
:101600000BF05BEF0BF01C835BEF0BF00C8E5BEFD2
:101610000BF00C8E18BF0FEF0BF011EF0BF022EF59
:101620000BF018510F0B3D6E3D50020D170EF324B9
:10163000D96E000EF420DA6EDECF3EF0DDCF3FF043
:1016400031EF0BF018510F0B3D6E3D50020D130E94
:10165000F324D96E000EF420DA6EDECF3EF0DDCF3B
:101660003FF03EC0D9FF3FC0DAFFDFAE3AEF0BF0EC
:101670003CEF0BF05BEF0BF03EC0D9FF3FC0DAFF51
:10168000DFA445EF0BF047EF0BF05BEF0BF0010E23
:101690001C6F5BEF0BF014511F0B000AD8B4FAEF6C
:1016A0000AF0010AD8B406EF0BF0030AD8B409EF28
:1016B0000BF05BEF0BF00CAE60EF0BF062EF0BF09A
:1016C00069EF0BF01C0E096E020E0A6E0C80020E02
:1016D0000D6E12000C8E540E3D6E0F0E3E6E000EFF
:1016E000406E000E3F6E000E426E010E416EAEEC7B
:1016F0000EF0000E3D6E020E3E6E000E406E000EAD
:101700003F6E000E426E140E416EAEEC0EF0648C15
:10171000000E516E1D0E5124D96EDA6A000EDA22C7
:10172000000EDF6E1B0E5124D96EDA6A000EDA222B
:10173000000EDF6E512A010E5164A1EF0BF0A3EFF2
:101740000BF08AEF0BF03B0E3D6E000E3E6E000E6E
:10175000406E000E3F6E000E426E010E416EAEEC0A
:101760000EF0649C080E136E020E146E000E236EB3
:10177000020E246E23C021F024C022F016C23CF0D9
:101780003C50D8A4C6EF0BF0C8EF0BF0CCEF0BF039
:10179000100E376EDCEF0BF0000E4A6E010E496E34
:1017A0003C0E4B6E000E4C6E000E4E6E010E4D6EDA
:1017B000F9EC0CF0200E376E1200446E000E426EF3
:1017C000020E436E000E416E010E406E4450D8A4CE
:1017D000ECEF0BF0EEEF0BF0FAEF0BF03D50D8A46E
:1017E000F4EF0BF0F6EF0BF0FAEF0BF0000E416E9A
:1017F000000E406E4450020DF3CF3EF0F4CF3FF0A8
:101800003D503E26000E3F2240503E2641503F2292
:10181000D8903E363F36D8903E363F363E50422630
:101820003F50432242C0D9FF43C0DAFFDF9E3D5004
:10183000D8A41DEF0CF01FEF0CF02DEF0CF044506E
:10184000020D170EF324D96E000EF420DA6E42C09A
:10185000DEFF43C0DDFF39EF0CF04450020D130EE4
:10186000F324D96E000EF420DA6E42C0DEFF43C0CE
:10187000DDFF4450D8B43FEF0CF041EF0CF046EFE1
:101880000CF042C0D9FF43C0DAFFDF8C12002D0EEE
:101890002D6E3AC058F0FD0E5816D8A452EF0CF039
:1018A00054EF0CF096EF0CF03AC058F0D890583244
:1018B0003F0E58165850040D000EF324236E020EEE
:1018C000F420246E23C021F024C022F0040E21183D
:1018D000216E2250226E23C0D9FF24C0DAFFDF30F0
:1018E000E8320F0B0D0AD8A478EF0CF07AEF0CF069
:1018F00092EF0CF0140E3D6E020E3E6E20EE02F0E2
:101900002350D9262450DA22DECF3FF0DDCF40F03D
:10191000000E426E080E416E21EC0EF047EC0DF009
:10192000A2EF0CF08CEC0DF0A2EF0CF03A50FD0B96
:10193000040AD8A49EEF0CF0A0EF0CF0A2EF0CF07C
:1019400079EC09F01200000E296E000E286E020ECE
:101950003218D8A4AEEF0CF0B0EF0CF0D0EF0CF0D2
:1019600020EE01F02150D9262250DA22080EDF6E37
:1019700020EE02F02150D9262250DA221C0EDE6E13
:10198000020EDD6E21C0D9FF22C0DAFF480EDF6EE5
:1019900021C0D9FF22C0DAFF000EDB8EF8EF0CF079
:1019A0000D5002011A5D0E501B59D8B0DAEF0CF041
:1019B000DCEF0CF0E0EF0CF01AC20DF01BC20EF0E1
:1019C000F4EC08F020EE02F01350D9261450DA227D
:1019D0001C0EDE6E020EDD6E13C0D9FF14C0DAFFDE
:1019E000480EDF6E13C0D9FF14C0DAFF000EDB8E85
:1019F00012000DEF0DF0010EF7EC0DF046EF0DF0BB
:101A0000020EF7EC0DF046EF0DF006EC0FF046EF8E
:101A10000DF0BDEC07F046EF0DF049C04FF04AC0A5
:101A200050F05050000AD8B41CEF0DF07F0AD8B423
:101A30003FEF0DF046EF0DF04F50010AD8B405EF1F
:101A40000DF0030AD8B446EF0DF0010AD8B409EF3F
:101A50000DF0060AD8B446EF0DF0770AD8B446EF79
:101A60000DF0010AD8B446EF0DF0070AD8B400EF24
:101A70000DF0010AD8B4FBEF0CF046EF0DF04F501B
:101A8000FF0AD8B446EF0DF046EF0DF01200000E3D
:101A9000336E000E2C6E000E296E000E286E000EA6
:101AA0002E6E000E326E13C0D9FF14C0DAFF7F0E07
:101AB000DF1613C013F014C014F013C0D9FF14C004
:101AC000DAFF7F0EDF1613C013F014C014F021C02C
:101AD000D9FF22C0DAFF7F0EDF16000E0C6E000E5B
:101AE0000E6E000E0D6E000E046E000E066E000EE1
:101AF000056EFBEC09F0000E4A6E030E496E000EF7
:101B00004B6E000E4C6E000E4E6E000E4D6EF9ECDC
:101B10000CF07FEC06F01200020E3218D8A493EFFE
:101B20000DF095EF0DF099EF0DF0DEEC05F0C5EF3F
:101B30000DF0000E326E2E50D8A4A1EF0DF0A3EFE1
:101B40000DF0C3EF0DF020EE01F02150D926225008
:101B5000DA22080EDF6E20EE02F02150D926225044
:101B6000DA22140EDE6E020EDD6E21C0D9FF22C015
:101B7000DAFF0C0EDF6E21C0D9FF22C0DAFF000EA3
:101B8000DB8EC5EF0DF0000E2E6E12000F0153A17B
:101B9000CCEF0DF0CEEF0DF0F5EF0DF023C0D9FF37
:101BA00024C0DAFF800EDE18D8A4D9EF0DF0DBEFE9
:101BB0000DF0F4EF0DF013C0D9FF14C0DAFF840E5E
:101BC000DE18D8A4E6EF0DF0E8EF0DF0F4EF0DF01D
:101BD00023C0D9FF24C0DAFF0C0EDF6E23C0D9FF6B
:101BE00024C0DAFF000EDB8E5391629A12003D6E24
:101BF00011EF0EF0000E816E000E826E000E8A6EE6
:101C0000000E8B6E000E7E6E000E7F6EF00E936ED9
:101C10000F0E946E000E8B6EF19EF00E786E20EF1C
:101C20000EF03D50000AD8B4FAEF0DF0010AD8B416
:101C300020EF0EF0030AD8B420EF0EF020EF0EF0E4
:101C400012003FC045F040C046F03DC043F03EC0EA
:101C500044F03BEF0EF045C0D9FF46C0DAFFDF503D
:101C6000476E454A462A43C0D9FF44C0DAFF47C001
:101C7000DFFF434A442A4106D8A04206412806E134
:101C80004228D8A446EF0EF048EF0EF02BEF0EF0EE
:101C90001200486E45A44FEF0EF051EF0EF056EFD4
:101CA0000EF0000E3D6E4850DDEC0BF045A25BEFF0
:101CB0000EF05DEF0EF062EF0EF0010E3D6E48503B
:101CC000DDEC0BF0530E4824466E476A0F0E472298
:101CD00046C0D9FF47C0DAFF45C0DFFF1200000E43
:101CE000F7EC0DF037EC05F051EC03F0200E376007
:101CF0007CEF0EF07EEF0EF080EF0EF074EF0EF042
:101D000064A285EF0EF087EF0EF089EF0EF074EF0E
:101D10000EF06DEC04F074EF0EF007EF00F0000E23
:101D2000306E000E4A6E740E496E000E4B6E000E41
:101D30004C6E000E4E6E000E4D6EF9EC0CF064927F
:101D40006094A4EF0EF0629462B4A9EF0EF0ABEFD2
:101D50000EF0A3EF0EF0000E276E12003DC043F010
:101D60003EC044F0BCEF0EF043C0D9FF44C0DAFFE0
:101D70003FC0DFFF434A442A4106D8A0420641281B
:101D800006E14228D8A4C7EF0EF0C9EF0EF0B4EF79
:101D90000EF01200010E0F26000E10221122122248
:101DA0003050D8A4D6EF0EF0D8EF0EF0E2EF0EF0E0
:101DB000272A2750D8A4DFEF0EF0E1EF0EF0E2EF74
:101DC0000EF027681200608462986482010E306E03
:101DD000000E276E000E4A6E750E496E000E4B6E99
:101DE000000E4C6E000E4E6E000E4D6EF9EC0CF0B7
:101DF000120000EE01F03C0EEE6AE806FDE15A909A
:101E00005A92000EF86E00016FEF0EF0000E256E74
:101E1000000E266E000E366E1A0E456E010E49EC4F
:041E20000EF01200AE
:020000040020DA
:08000000FFFFFFFFFFFFFFFF00
:020000040030CA
:0E0000000032011EFF0081FF03C003E0034039
:00000001FF
